{
  "_format": "hh-sol-artifact-1",
  "contractName": "PrakritiFi",
  "sourceName": "contracts/PrakritiFi.sol",
  "abi": [
    {
      "inputs": [],
      "stateMutability": "nonpayable",
      "type": "constructor"
    },
    {
      "anonymous": false,
      "inputs": [
        {
          "indexed": true,
          "internalType": "address",
          "name": "farmer",
          "type": "address"
        },
        {
          "indexed": false,
          "internalType": "uint256",
          "name": "timestamp",
          "type": "uint256"
        }
      ],
      "name": "CredentialMinted",
      "type": "event"
    },
    {
      "anonymous": false,
      "inputs": [
        {
          "indexed": true,
          "internalType": "address",
          "name": "farmer",
          "type": "address"
        },
        {
          "indexed": false,
          "internalType": "uint256",
          "name": "amount",
          "type": "uint256"
        },
        {
          "indexed": false,
          "internalType": "uint256",
          "name": "timestamp",
          "type": "uint256"
        }
      ],
      "name": "InsurancePayout",
      "type": "event"
    },
    {
      "inputs": [],
      "name": "fundVault",
      "outputs": [],
      "stateMutability": "payable",
      "type": "function"
    },
    {
      "inputs": [
        {
          "internalType": "address",
          "name": "farmer",
          "type": "address"
        }
      ],
      "name": "mintGroundTruthCredential",
      "outputs": [],
      "stateMutability": "nonpayable",
      "type": "function"
    },
    {
      "inputs": [],
      "name": "owner",
      "outputs": [
        {
          "internalType": "address",
          "name": "",
          "type": "address"
        }
      ],
      "stateMutability": "view",
      "type": "function"
    },
    {
      "inputs": [
        {
          "internalType": "address payable",
          "name": "farmer",
          "type": "address"
        },
        {
          "internalType": "uint256",
          "name": "amount",
          "type": "uint256"
        }
      ],
      "name": "triggerInsurancePayout",
      "outputs": [],
      "stateMutability": "nonpayable",
      "type": "function"
    },
    {
      "stateMutability": "payable",
      "type": "receive"
    }
  ],
  "bytecode": "0x608060405234801561001057600080fd5b50336000806101000a81548173ffffffffffffffffffffffffffffffffffffffff021916908373ffffffffffffffffffffffffffffffffffffffff160217905550610627806100606000396000f3fe6080604052600436106100435760003560e01c80638da5cb5b1461004f578063de63abb91461007a578063de6e2b44146100a3578063f7800e69146100cc5761004a565b3661004a57005b600080fd5b34801561005b57600080fd5b506100646100d6565b6040516100719190610388565b60405180910390f35b34801561008657600080fd5b506100a1600480360381019061009c91906103d4565b6100fa565b005b3480156100af57600080fd5b506100ca60048036038101906100c59190610475565b6101d9565b005b6100d4610345565b005b60008054906101000a900473ffffffffffffffffffffffffffffffffffffffff1681565b60008054906101000a900473ffffffffffffffffffffffffffffffffffffffff1673ffffffffffffffffffffffffffffffffffffffff163373ffffffffffffffffffffffffffffffffffffffff1614610188576040517f08c379a000000000000000000000000000000000000000000000000000000000815260040161017f90610512565b60405180910390fd5b8073ffffffffffffffffffffffffffffffffffffffff167f87e8164e0262c50449e8e6e9a9a0c3493a834dab3c5bbdf82cfc238c8ee577ba426040516101ce9190610541565b60405180910390a250565b60008054906101000a900473ffffffffffffffffffffffffffffffffffffffff1673ffffffffffffffffffffffffffffffffffffffff163373ffffffffffffffffffffffffffffffffffffffff1614610267576040517f08c379a000000000000000000000000000000000000000000000000000000000815260040161025e90610512565b60405180910390fd5b804710156102aa576040517f08c379a00000000000000000000000000000000000000000000000000000000081526004016102a1906105a8565b60405180910390fd5b8173ffffffffffffffffffffffffffffffffffffffff166108fc829081150290604051600060405180830381858888f193505050501580156102f0573d6000803e3d6000fd5b508173ffffffffffffffffffffffffffffffffffffffff167f80a376c2c8a7187d123760e27a045ec9c58bd456bfcd2c9c4b5cef51e382201982426040516103399291906105c8565b60405180910390a25050565b565b600073ffffffffffffffffffffffffffffffffffffffff82169050919050565b600061037282610347565b9050919050565b61038281610367565b82525050565b600060208201905061039d6000830184610379565b92915050565b600080fd5b6103b181610367565b81146103bc57600080fd5b50565b6000813590506103ce816103a8565b92915050565b6000602082840312156103ea576103e96103a3565b5b60006103f8848285016103bf565b91505092915050565b600061040c82610347565b9050919050565b61041c81610401565b811461042757600080fd5b50565b60008135905061043981610413565b92915050565b6000819050919050565b6104528161043f565b811461045d57600080fd5b50565b60008135905061046f81610449565b92915050565b6000806040838503121561048c5761048b6103a3565b5b600061049a8582860161042a565b92505060206104ab85828601610460565b9150509250929050565b600082825260208201905092915050565b7f4e6f7420617574686f72697a6564000000000000000000000000000000000000600082015250565b60006104fc600e836104b5565b9150610507826104c6565b602082019050919050565b6000602082019050818103600083015261052b816104ef565b9050919050565b61053b8161043f565b82525050565b60006020820190506105566000830184610532565b92915050565b7f496e73756666696369656e74207661756c742062616c616e6365000000000000600082015250565b6000610592601a836104b5565b915061059d8261055c565b602082019050919050565b600060208201905081810360008301526105c181610585565b9050919050565b60006040820190506105dd6000830185610532565b6105ea6020830184610532565b939250505056fea26469706673582212209f1f3c43d3e059384b143cc65dffd521b6190b12a7f8257e24e82904944ebbee64736f6c63430008130033",
  "linkReferences": {},
  "deployedLinkReferences": {}
}